:020000040000FA
:10000000B2011629B216B21EB212B2190B28B215DD
:100010004420031832280830A3005820A20DA30B57
:100020000D28B21E3D2062205E20B21A32203720F9
:10003000220803101129B216B21EB2123219252855
:10004000FE39B300321503101129321A2D28A600EB
:10005000321644200318322826084B200318322871
:10006000B21E11293D20622032113212B21136081F
:100070008400340884178004432836088400340937
:100080008005841780050800372062203D205E200F
:100090003308B2190138A2000830A300A20D0318DA
:1000A0003720031C3D2062205E20A30B4E28372002
:1000B00062203608840034080005FF3E37088400BB
:1000C000350940283708840035088004841735092D
:1000D000800543280408A700861006100610831622
:1000E000861006100610F030850583122708B21816
:1000F00096283A30A100FC30F8203330A600AB201F
:100100001030A1006830F820AB206430F720223096
:10011000A600AB20283095200C309520013095208A
:1001200006309520B214270896283214A600321CF7
:10013000A4280610033C031CA928A9200530A1000F
:10014000DC30F820031408003214FE3C0319112996
:100150000614A60E321C32108614F03085052608CF
:100160000F3985048610A60E3218AB282C30F720E4
:1001700003140800B31329080319B3170430A800A7
:10018000250EC7202508C720240EC72024080F39B4
:10019000F63E0318073E0A3ECD28A000A803031927
:1001A000B31329080319D7282802031808002008C8
:1001B000031DB313B31B0800303E0C2983169A00AD
:1001C0001C1555309D00AA309D009C149C18E628F3
:1001D0001C111129A301A200FF30A207031CA307D1
:1001E000031C11290330A100DF30F820EC28A10105
:1001F000E83EA000A109FC30031C0129A007031858
:10020000FE28A0076400A10FFE2820180729A01CC3
:100210000B2900000B290800840031088A003008EF
:1002200082008313031383126400080007309F00C9
:100230000630B6004030B4000630B7008030B5005C
:10024000D0301D2000301D200220BF000630B60037
:100250004030B4000630B7008030B500D0301D20EB
:1002600001301D200220BD000630B6004030B40031
:100270000630B7008030B500D0301D2002301D2080
:100280000220BB000630B6004030B4000630B70094
:100290008030B500D0301D2003301D200220BA0070
:1002A0000630B6004030B4000630B7008030B500EC
:1002B000D0301D2004301D200220B9000630B600C9
:1002C0004030B4000630B7008030B500D0301D207B
:1002D00005301D200220BC000630B6004030B400BE
:1002E0000630B7008030B500D0301D2006301D200C
:1002F0000220B800FE306B2001306B20FE306B20F6
:1003000002306B2064003A08013C031D8F29443001
:100310006B206F306B206D306B202E306B206400B3
:100320003A08023C031D9C294C306B2075306B2031
:100330006E306B202E306B2064003A08033C031DA6
:10034000A9294D306B2061306B2072306B202E302C
:100350006B2064003A08043C031DB6294D306B2025
:1003600069306B2065306B202E306B2064003A08BA
:10037000053C031DC3294A306B2075306B20653066
:100380006B202E306B2064003A08063C031DD029F8
:1003900056306B2069306B2065306B202E306B201F
:1003A00064003A08073C031DDD2953306B2061309F
:1003B0006B2062306B202E306B200230A900390890
:1003C000A400A5016A30B000B101BA202F306B2023
:1003D00064003C08013C031DF32965306B206E303E
:1003E0006B2065306B2064003C08023C031DFE2935
:1003F00066306B2065306B2062306B2064003C08F7
:10040000033C031D092A6D306B2061306B20723074
:100410006B2064003C08043C031D142A61306B20EF
:1004200062306B2072306B2064003C08053C031D79
:100430001F2A6D306B2061306B2079306B20640097
:100440003C08063C031D2A2A6A306B2075306B205D
:100450006E306B2064003C08073C031D352A6A306F
:100460006B2075306B206C306B2064003C08083CBE
:10047000031D402A61306B2067306B206F306B208A
:1004800064003C08093C031D4B2A73306B20653027
:100490006B2070306B2064003C08103C031D562A12
:1004A0006F306B2063306B2074306B2064003C082D
:1004B000113C031D612A6E306B206F306B2076304B
:1004C0006B2064003C08123C031D6C2A64306B20D6
:1004D00069306B2063306B202F306B2032306B2003
:1004E00030306B200230A9003808A400A5016A3022
:1004F000B000B101BA20FE306B20C0306B2002305A
:10050000A9003B08A400A5016A30B000B101BA20DF
:100510003A306B200230A9003D08A400A5016A30E2
:10052000B000B101BA203A306B200230A9003F0878
:10053000A400A5016A30B000B101BA200130A300C7
:10054000F430EB2018290630B6004030B4000630F5
:10055000B7008030B500D0301D2000301D200030A5
:100560001B200A30EA200630B6004030B4000630C6
:10057000B7008030B500D0301D2001301D20323052
:100580001B200A30EA200630B6004030B4000630A6
:10059000B7008030B500D0301D2002301D2015304E
:1005A0001B200A30EA200630B6004030B400063086
:1005B000B7008030B500D0301D2003301D2005303D
:1005C0001B200A30EA200630B6004030B400063066
:1005D000B7008030B500D0301D2004301D20213000
:1005E0001B200A30EA200630B6004030B400063046
:1005F000B7008030B500D0301D2005301D200130FF
:100600001B200A30EA200630B6004030B400063025
:10061000B7008030B500D0301D2006301D202130BD
:100620001B200A30EA2083169B0101308312DE2052
:02063000182987
:02400E006D3F04
:00000001FF
