:020000040000FA
:100000002828A301A200FF30A207031CA307031C9A
:1000100023280330A100DF300F200328A101E83E90
:10002000A000A109FC30031C1828A00703181528FC
:10003000A0076400A10F152820181E28A01C222844
:1000400000002228080083130313831264000800B1
:100050008316860183120C3086001330A30088308B
:1000600002200A3086000330A300E830022021304D
:1000700086001330A3008830022011308600033040
:08008000A300E83002202B2848
:02400E006D3F04
:00000001FF
