:020000040000FA
:10000000B20109290408A7008612061206128316F7
:10001000861206120612F030860583122708B218DF
:100020002E283A30A100FC30B7203330A600432000
:100030001030A1006830B72043206430B620223051
:10004000A600432028302D200C302D2001302D20FB
:1000500006302D20B21427082E283214A600321C98
:100060003C280612033C031C412841200530A10016
:10007000DC30B720031408003214FE3C03190429B5
:100080000616A60E321C32108616F030860526089B
:100090000F3986048612A60E321843282C30B6205B
:1000A00003140800B31329080319B3170530A80077
:1000B0002730A300103068200330A300E830682008
:1000C000A30164306820A3010A30682024086F2847
:1000D000A2002508A1002408A000E3202008A00019
:1000E000A8030319B3132908031979282802031850
:1000F00008002008031DB313B31B0800303EFF287F
:10010000A000A00DA00D200D3839C1389F0000308F
:10011000A1003230B7201F151F198C281E08A1001E
:1001200083161E08042903178D0083168C010C14F6
:1001300083120C08042903178C0083168C010C15FC
:1001400055308D00AA308D008C148C18A5280C1108
:100150000429A301A200FF30A207031CA307031C6C
:1001600004290330A100DF30B720AB28A101E83E0D
:10017000A000A109FC30031CC028A0070318BD285B
:10018000A0076400A10FBD282018C628A01CCA28FB
:100190000000CA280800A301A2000130D328A3014F
:1001A000A2000430D328A80023082102031DDA2866
:1001B00022082002043003180130031902302805F8
:1001C000031DFF300429A501A4011030A600210D54
:1001D000A40DA50D2208A4022308031C230FA502C9
:1001E0000318F9282208A40723080318230FA507DA
:1001F0000310A00DA10DA60BE728200804298400F8
:1002000031088A00300882008313031383126400CC
:1002100008008316013085000E309F00E030880012
:10022000831200308A019320BB0001308A019320A1
:10023000BA0000308A018020B8002108B900FE30E1
:100240008A01032001308A010320FE308A01032045
:1002500002308A01032054308A0103202E308A01A3
:1002600003204D308A01032049308A0103204E309B
:100270008A01032020308A01032054308A010320A0
:100280002E308A01032041308A01032043308A0145
:10029000032054308A01032020308A010320543087
:1002A0008A0103202E308A0103204D308A01032069
:1002B00041308A01032058308A0103203808A00009
:1002C0003908A1008030A200A3018A01E320B80010
:1002D0002108B900FE308A010320C6308A010320BC
:1002E000A9013808A4003908A5000230B000B10106
:1002F0008A015220DF308A01032043308A01032023
:10030000FE308A010320C0308A010320A9013B0886
:10031000A400A5010230B000B1018A015220DF30F3
:100320008A01032043308A010320FE308A01032022
:10033000CC308A010320A9013A08A400A5010230AB
:10034000B000B1018A015220DF308A01032043301E
:100350008A010320BC01640065303C028A110A1244
:100360000318BF2964008A110A12881AF3290F3072
:100370008A01A920BC0A8A110A12031DAB29380878
:10038000A0003908A1003B088A01CF208A110A1277
:10039000031DDF293808A0003908A1003A088A01A6
:1003A000CB208A110A12031DE929881183168811AE
:1003B000831208128316081283128A0119298815DC
:1003C00083168811831208128316081283128A0179
:1003D00019290816831608128312881183168811AA
:1003E00083128A0119298A110A123923FE308A01DF
:1003F000032001308A010320FE308A0103200230ED
:100400008A01032050308A01032052308A010320E0
:100410004F308A01032047308A01032052308A017D
:10042000032041308A0103204D308A0103204130EE
:100430008A01032052308A01032020308A010320E0
:1004400054308A01032045308A0103204D308A014F
:10045000032050308A0103203A308A010320FE3005
:100460008A010320C0308A0103204D308A01032015
:1004700069308A0103206E308A01032069308A01C5
:1004800003206D308A01032061308A01032020306F
:100490008A0103203D308A01032020308A01032095
:1004A000A9013B08A400A5010230B000B1018A01F6
:1004B0005220DF308A01032043308A010320643058
:1004C0008A01A92064008A110A12081B732A640099
:1004D0008A110A12881B802A64008A110A12881A5B
:1004E0008D2A8A01F6298A110A12392364000930FB
:1004F0003B028A110A12031CF629BB038A01F62962
:100500008A110A123923640013303B028A110A123D
:100510000318F629BB0A8A01F6298A110A1239231F
:1005200003178D0103133B088A019B20FE308A01CB
:10053000032001308A010320FE308A0103200230AB
:100540008A01032050308A01032052308A0103209F
:100550004F308A01032047308A01032052308A013C
:10056000032041308A0103204D308A0103204130AD
:100570008A01032052308A01032020308A0103209F
:1005800054308A01032045308A0103204D308A010E
:10059000032050308A0103203A308A010320FE30C4
:1005A0008A010320C0308A0103204D308A010320D4
:1005B00061308A01032078308A01032069308A0182
:1005C00003206D308A01032061308A01032020302E
:1005D0008A0103203D308A01032020308A01032054
:1005E000A9013A08A400A5010230B000B1018A01B6
:1005F0005220DF308A01032043308A010320643017
:100600008A01A92064008A110A12081B132B6400B6
:100610008A110A12881B202B64008A110A12881A78
:100620002D2B8A01962A8A110A1239236400183068
:100630003A028A110A12031C962ABA038A01962AE0
:100640008A110A123923640029303A028A110A12E7
:100650000318962ABA0A8A01962A8A110A1239239D
:10066000031701308D0003133A088A019B208A0189
:10067000112964008A110A12081B392B64008A119F
:100680000A12881B392B64008A110A12881A392B26
:0806900064308A01A920080072
:02400E007D3FF4
:04420000120019008F
:00000001FF
