:1000000000308A005C280000FF00030E8301A1007D
:100010000A08A0008A010408A2007708A300780853
:10002000A4007908A5007A08A600831383120B1E8A
:100030001B288B182C28220884002308F70024088A
:10004000F8002508F9002608FA0020088A00210E89
:100050008300FF0E7F0E09008A110A123D280A1044
:100060008A100A1182074034793424343034193428
:1000700012340234783400341034A908031D4328A4
:100080000130A9004428A9018B108A110A121B28EB
:100090001230B202031C5B28323084008313FC3020
:1000A00080050310800C800C000803195B28592878
:1000B0000000800B58280800840183131F3083053B
:1000C0000730A8009E30A700A901AA0183161F14BB
:1000D0009F141F159F1107309C008312AB01AC01C8
:1000E000AD01AE01AF01B0010130831686000030D2
:1000F00087008800850083120B1683160117C03015
:1001000083128B04A908031D2229AA08031DD528E0
:10011000013085002B082F20B10087002808B1008E
:10012000B10AB10303199828FF30B2004820912882
:100130002708B2004820023085002C082F20B1008B
:1001400087002808B100B10AB1030319AB28FF30BA
:10015000B2004820A4282708B200482004308500B7
:100160002D082F20B10088002808B100B10AB10382
:100170000319BE28FF30B2004820B7282708B20074
:100180004820083085002E082F20B100880028085C
:10019000B100B10AB1030319D128FF30B2004820E1
:1001A000CA282708B20048202129013085002D08DF
:1001B0002F20B10087002808B100B10AB10303194C
:1001C000E528FF30B2004820DE282708B20048208A
:1001D000023085002E082F20B10087002808B100CA
:1001E000B10AB1030319F828FF30B2004820F12802
:1001F0002708B2004820043085002F082F20B100C6
:1002000088002808B100B10AB10303190B29FF3097
:10021000B200482004292708B20048200830850091
:1002200030082F20B10088002808B100B10AB103BE
:1002300003191E29FF30B200482017292708B200F1
:100240004820FA29AA08031D7229013085002B08CD
:100250002F20B10087002808B100B10AB1030319AB
:100260003529FF30B20048202E292708B200482047
:10027000023085002C082F20B10087002808B1002B
:10028000B10AB10303194829FF30B20048204129BF
:100290002708B2004820043085002D082F20B10027
:1002A00088002808B100B10AB10303195B29FF30A7
:1002B000B200482054292708B200482008308500A1
:1002C0002E082F20B10088002808B100B10AB10320
:1002D00003196E29FF30B200482067292708B200B1
:1002E0004820BE29013085002D082F20B10087004D
:1002F0002808B100B10AB10303198229FF30B20006
:1003000048207B292708B2004820023085002E08AB
:100310002F20B10087002808B100B10AB1030319EA
:100320009529FF30B20048208E292708B2004820C6
:10033000043085002F082F20B10088002808B10064
:10034000B10AB1030319A829FF30B2004820A1293E
:100350002708B20048200830850030082F20B1005F
:1003600088002808B100B10AB1030319BB29FF3086
:10037000B2004820B4292708B20048200130AB075A
:100380002B08093C031CC6298228C729AB01013070
:10039000AC072C08093C031CCF298228D029AB01CB
:1003A000AC010130AD072D08093C031CD929822876
:1003B000DA29AB01AC01AD010130AE072E08053CD6
:1003C000031CE4298228E529AB01AC01AD01AE0193
:1003D0000130AA00AF072F08093C031CF12982282D
:1003E000F229AB01AC01AD01AE01AF010130B000AB
:0803F000A901822882286300A4
:02400E00713F00
:00000001FF
;PIC16F877A
;CRC=540F  CREATED="13-ago-21 14:47"
