:020000040000FA
:10000000B201F2280408A700861106110611831612
:100010008611061106110F30860583122708B218C3
:100020002E283A30A100FC308D203330A60042202B
:100030001030A10068308D20422064308C202230A6
:10004000A600422028302D200C302D2001302D20FC
:1000500006302D20B21427082E283214A600321C98
:100060003C280611033C031C412841200530A10017
:10007000DC308D20031408003214FE3C0319ED28F7
:100080000615321C321086150F3086052608F03909
:1000900086048611A60E321842282C308C200314B8
:1000A0000800B31329080319B3170530A800273037
:1000B000A300103067200330A300E8306720A301BD
:1000C00064306720A3010A30672024086E28A2004C
:1000D0002508A1002408A000B6202008A000A8033D
:1000E0000319B313290803197828280203180800F4
:1000F0002008031DB313B31B0800303EE828A301FA
:10010000A200FF30A207031CA307031CED28033045
:10011000A100DF308D208128A101E83EA000A109C7
:10012000FC30031C9628A00703189328A00764003E
:10013000A10F932820189C28A01CA0280000A0280C
:100140000800A2000130A628A2000530A80023085C
:100150002102031DAD2822082002043003180130BB
:10016000031902302805031DFF30ED28A501A40165
:100170001030A600210DA40DA50D2208A40223080D
:10018000031C230FA5020318CC282208A407230868
:100190000318230FA5070310A00DA10DA60BBA2865
:1001A0002008ED281030A800A101A001A70CA60C82
:1001B000031CE0282208A00723080318230FA10727
:1001C000A10CA00CA50CA40CA80BD6282408ED2883
:1001D000840031088A0030088200831303138312DD
:1001E00064000800831607309C00033085008312EA
:1001F00085010130BF0064008A110A12051C0E2916
:100200000130A300F4308A018020BE0A6400193056
:100210003E028A110A12031C0E29BE01FE308A0119
:10022000032001308A010320FE308A0103200230BE
:100230008A01032050308A01032052308A010320B2
:100240004F308A01032047308A01032052308A014F
:10025000032041308A0103204D308A0103204130C0
:100260008A01032052308A01032020308A010320B2
:1002700054308A01032049308A01032045308A0125
:1002800003204D308A01032050308A0103204F3073
:100290008A010320FE308A010320C5308A01032031
:1002A000A9013E08A400A5010230B000B1018A01F5
:1002B0005120FE308A010320C8308A0103204830D3
:1002C0008A0103204F308A01032052308A01032023
:1002D00041308A01032053308A01032064008A11CF
:1002E0000A12851C76298A110A127B2932308A016A
:1002F0007F208A01FB283E08A600A7013C30A2000F
:10030000A3018A01D220BA002508BB00FE308A0171
:10031000032001308A010320FE308A0103200230CD
:100320008A01032054308A01032049308A010320C6
:100330004D308A01032045308A01032020308A0194
:1003400003204F308A0103204E308A0103203A30C7
:100350008A01032020308A010320A9013E08A4005D
:10036000A5010230B000B1018A01512048308A0154
:10037000032072308A010320FE308A010320C0303E
:100380008A01032045308A0103204C308A01032072
:1003900041308A01032050308A01032053308A0102
:1003A000032045308A01032044308A010320203095
:1003B0008A01032054308A0103203A308A01032045
:1003C00020308A010320A9014008A400A5010230C1
:1003D000B000B1018A01512048308A0103207230F7
:1003E0008A010320BC01BD013C08A0003D08A1001A
:1003F0003B08A3003A088A01A1208A110A12031DB2
:100400006A2A0515831605118312EA30A3006030AD
:100410008A0180203F08A600A7013C30A200A3016A
:100420008A01D220B8002508B9003C08A0003D0888
:10043000A1003908A30038088A01A4208A110A12F1
:10044000031D632ABF0A3C08A0003D08A1003C3000
:10045000A200A3018A01B620C000FE308A01032059
:10046000C0308A01032045308A0103204C308A01C4
:10047000032041308A01032050308A010320533089
:100480008A01032045308A01032044308A01032079
:1004900020308A01032054308A0103203A308A0137
:1004A000032020308A010320A9014008A400A501EF
:1004B0000230B000B1018A01512048308A01032086
:1004C00072308A010320BC0A0319BD0A8A110A127C
:1004D000031DF4290511831605118312BE01FE3098
:0E04E0008A01032001308A0103208A01FB28D3
:02400E007D3FF4
:00000001FF
