:020000040000FA
:10000000B201C7280408A7000711871087108316BC
:100010000711871087100F30870583122708B21841
:100020002E283A30A100FC308D203330A60042202B
:100030001030A10068308D20422064308C202230A6
:10004000A600422028302D200C302D2001302D20FC
:1000500006302D20B21427082E283214A600321C98
:100060003C288710033C031C412841200530A10097
:10007000DC308D20031408003214FE3C0319C22822
:100080008714321C321007150F3087052608F03907
:1000900087040711A60E321842282C308C20031436
:1000A0000800B31329080319B3170530A800273037
:1000B000A300103067200330A300E8306720A301BD
:1000C00064306720A3010A30672024086E28A2004C
:1000D0002508A1002408A000A1202008A000A80352
:1000E0000319B313290803197828280203180800F4
:1000F0002008031DB313B31B0800303EBD28A30125
:10010000A200FF30A207031CA307031CC228033070
:10011000A100DF308D208128A101E83EA000A109C7
:10012000FC30031C9628A00703189328A00764003E
:10013000A10F932820189C28A01CA0280000A0280C
:100140000800A501A4011030A600210DA40DA50DE5
:100150002208A4022308031C230FA5020318B728B2
:100160002208A40723080318230FA5070310A00DD6
:10017000A10DA60BA5282008C228840031088A00FA
:10018000300882008313031383126400080083166F
:100190000F30860083120A30BB00FE308A01032034
:1001A00002308A01032054308A01032045308A013D
:1001B000032043308A0103204C308A010320413060
:1001C0008A01032053308A01032020308A01032052
:1001D00050308A01032055308A0103204C308A01B7
:1001E000032053308A01032041308A010320443028
:1001F0008A01032041308A01032053308A01032001
:100200003A308A01032008178316081383128812D4
:1002100083168812831208128316081264008A114A
:100220000A128312881D19290330BC008A110A1290
:10023000B52164008A110A12081D23290630BC006A
:100240008A110A12B52164008A110A12881C2D290C
:100250000930BC008A110A12B52164008A110A1201
:10026000081C37292330BC008A110A12B521081353
:100270008316081383123B088A017F200813831614
:1002800008138312881683168812831208128316A5
:10029000081264008A110A128312881D5429023040
:1002A000BC008A110A12B52164008A110A12081DC5
:1002B0005E290530BC008A110A12B52164008A113A
:1002C0000A12881C68290830BC008A110A12B5215C
:1002D00064008A110A12081C7129BC018A110A12D1
:1002E000B52188128316881283123B088A017F2069
:1002F0000813831608138312881283168812831238
:1003000008168316081264008A110A128312881DC7
:100310008E290130BC008A110A12B52164008A11AD
:100320000A12081D98290430BC008A110A12B5214E
:1003300064008A110A12881CA2290730BC008A11A5
:100340000A12B52164008A110A12081CAC292A304D
:10035000BC008A110A12B5210812831608128312F2
:100360003B088A017F208A010329FE308A0103208D
:1003700002308A01032054308A01032045308A016B
:10038000032043308A0103204C308A01032041308E
:100390008A01032053308A01032020308A01032080
:1003A00050308A01032055308A0103204C308A01E5
:1003B000032053308A01032041308A010320443056
:1003C0008A01032041308A01032053308A0103202F
:1003D0003A308A010320FE308A010320C0303A07F8
:1003E000B800B901B90D38088A01032064003C083F
:1003F0002A3C8A110A12031D032A2A308A0103208B
:100400008A110A12192A64003C08233C8A110A1234
:10041000031D102A23308A0103208A110A12192A87
:10042000A9013C08A400A5010230B000B1018A0175
:10043000512032308A017F20BA0A640010303A021B
:100440008A110A12031C612AFE308A01032001303E
:100450008A010320BA01FE308A01032002308A019A
:10046000032054308A01032045308A0103204330A1
:100470008A0103204C308A01032041308A01032085
:1004800053308A01032020308A01032050308A0132
:10049000032055308A0103204C308A010320533059
:1004A0008A01032041308A01032044308A0103205D
:1004B00041308A01032053308A0103203A308A01F7
:0404C000032008000D
:02400E007D3FF4
:00000001FF
