:020000040000FA
:10000000B2017E28A70007118710871083160711F9
:10001000871087100F30870583122708B2182D2804
:100020003A30A100FC305E203330A6004120103071
:10003000A10068305E20412064305D202230A6009F
:10004000412028302C200C302C2001302C20063070
:100050002C20B21427082D283214A600321C3B286D
:100060008710033C031C402840200530A100DC30F1
:100070005E20031408003214FE3C0319792887140B
:10008000321C321007150F3087052608F039870417
:100090000711A60E321841282C305D2003140800E9
:1000A000A301A200FF30A207031CA307031C7928A9
:1000B0000330A100DF305E205228A101E83EA000FD
:1000C000A109FC30031C6728A00703186428A007B7
:1000D0006400A10F642820186D28A01C712800005E
:1000E000712808000038031DFF300405031DFF3090
:1000F00079288313031383126400080083160F30DA
:10010000860083120A30CD002A30B8000230B900D0
:100110000730BA002330BB000630BC00FE308A0135
:10012000022001308A010220FE308A0102200230C2
:100130008A01022049308A0102204E308A010220C1
:1001400047308A01022052308A01022045308A015C
:10015000022053308A01022045308A0102202030DB
:100160008A0102204C308A01022041308A0102209B
:1001700020308A01022043308A0102204C308A015B
:10018000022041308A01022056308A010220453087
:100190008A0102203A308A010220C8308A015020A8
:1001A000FE308A01022002308A01022020308A01BA
:1001B000022020308A01022020308A0102202030D3
:1001C0008A0102203C308A01022043308A01022049
:1001D0004C308A01022041308A01022056308A01C7
:1001E000022045308A0102203E308A010220203060
:1001F0008A01022020308A01022020308A01022058
:1002000020308A01022020308A010220081783163C
:100210000813831288128316881283120812831619
:10022000081264008A110A128312881D1C290330E7
:10023000CE008A110A12B82164008A110A12081D20
:1002400026290630CE008A110A12B82164008A11CC
:100250000A12881C30290930CE008A110A12B821EE
:1002600064008A110A12081C3A292330CE008A1130
:100270000A12B82108138316081383124D088A0145
:1002800050200813831608138312881683168812C9
:10029000831208128316081264008A110A1283124C
:1002A000881D57290230CE008A110A12B821640035
:1002B0008A110A12081D61290530CE008A110A121E
:1002C000B82164008A110A12881C6B290830CE00FC
:1002D0008A110A12B82164008A110A12081C7429B2
:1002E000CE018A110A12B82188128316881283124D
:1002F0004D088A01502008138316081383128812B0
:1003000083168812831208168316081264008A1155
:100310000A128312881D91290130CE008A110A1217
:10032000B82164008A110A12081D9B290430CE00EE
:100330008A110A12B82164008A110A12881CA529A0
:100340000730CE008A110A12B82164008A110A12FD
:10035000081CAF292A30CE008A110A12B8210812CF
:100360008316081283124D088A0150208A01D02872
:10037000FE308A010220C5304C07C200C301C30D04
:1003800042088A0102202A308A0102204C083D3EA0
:1003900084004E08800032308A015020CC0A64006C
:1003A0004C08053C8A110A12031DA92A3D0838028F
:1003B000031DFF30FF3AC2003E083902031DFF3023
:1003C000FF3AC4004208840044088A017220C40035
:1003D000C5003F083A02031DFF30FF3AC60044083B
:1003E0004504840046088A017220C600C700400800
:1003F0003B02031DFF30FF3AC80046084704840053
:1004000048088A017220C800C90041083C02031D47
:10041000FF30FF3ACA004808490484004A088A01AC
:100420007220CA00CB0064004A084B048A110A12E9
:100430000319612AFE308A01022001308A0102205C
:10044000FE308A01022002308A01022043308A01F4
:1004500002204C308A01022041308A0102205630AD
:100460008A01022045308A01022020308A010220C0
:1004700043308A0102204F308A01022052308A0123
:10048000022052308A01022045308A010220433086
:100490008A01022054308A01022041308A01022060
:1004A00088178316881383120130A300F4308A0161
:1004B00051208813831688138312CC018A110A12E3
:1004C000A92AFE308A01022001308A010220FE3072
:1004D0008A01022002308A01022043308A01022070
:1004E0004C308A01022041308A01022056308A01B4
:1004F000022045308A01022020308A010220493042
:100500008A0102204E308A01022043308A010220F3
:100510004F308A01022052308A01022052308A0173
:10052000022045308A01022043308A0102205430E3
:100530008A01022041308A0102200130A300F430F8
:100540008A015120CC01FE308A01022001308A014B
:04055000022008007D
:02400E007D3FF4
:00000001FF
