:020000040000FA
:10000000B2017728A7008611061106118316861102
:10001000061106110F30860583122708B2182D2805
:100020003A30A100FC305E203330A6004120103071
:10003000A10068305E20412064305D202230A6009F
:10004000412028302C200C302C2001302C20063070
:100050002C20B21427082D283214A600321C3B286D
:100060000611033C031C402840200530A100DC3071
:100070005E20031408003214FE3C03197228061592
:10008000321C321086150F3086052608F03986049A
:100090008611A60E321841282C305D20031408006A
:1000A000A301A200FF30A207031CA307031C7228B0
:1000B0000330A100DF305E205228A101E83EA000FD
:1000C000A109FC30031C6728A00703186428A007B7
:1000D0006400A10F642820186D28A01C712800005E
:1000E0007128080083130313831264000800BA0107
:1000F000640007303A020318BF28FE3002200130A6
:100100000220FE30022080303A07B800B901B90D54
:1001100038080220483002206F3002206C30022064
:1001200061300220203002204D3002207530022044
:100130006E300220643002206F300220FE30022038
:10014000C0303A07B800B901B90D38080220313083
:100150000220323002203330022034300220353089
:100160000220363002203730022038300220393069
:1001700002203030022064305020BA0F7828BB01B2
:10018000640006303B0203180829BA03FE3002203F
:1001900001300220FE30022080303A07B800B90159
:1001A000B90D38080220483002206F3002206C3030
:1001B000022061300220203002204D3002207530B4
:1001C00002206E300220643002206F300220FE30A8
:1001D0000220C0303A07B800B901B90D3808022032
:1001E00031300220323002203330022034300220FD
:1001F00035300220363002203730022038300220DD
:10020000393002203030022064305020BB0FC0282B
:0202100077284D
:02400E006D3F04
:00000001FF
